{
  "abi": [
    {
      "type": "function",
      "name": "allowance",
      "inputs": [
        {
          "name": "owner",
          "type": "address",
          "internalType": "address"
        },
        {
          "name": "spender",
          "type": "address",
          "internalType": "address"
        }
      ],
      "outputs": [
        {
          "name": "",
          "type": "uint256",
          "internalType": "uint256"
        }
      ],
      "stateMutability": "view"
    },
    {
      "type": "function",
      "name": "approve",
      "inputs": [
        {
          "name": "spender",
          "type": "address",
          "internalType": "address"
        },
        {
          "name": "value",
          "type": "uint256",
          "internalType": "uint256"
        }
      ],
      "outputs": [
        {
          "name": "",
          "type": "bool",
          "internalType": "bool"
        }
      ],
      "stateMutability": "nonpayable"
    },
    {
      "type": "function",
      "name": "balanceOf",
      "inputs": [
        {
          "name": "account",
          "type": "address",
          "internalType": "address"
        }
      ],
      "outputs": [
        {
          "name": "",
          "type": "uint256",
          "internalType": "uint256"
        }
      ],
      "stateMutability": "view"
    },
    {
      "type": "function",
      "name": "burn",
      "inputs": [
        {
          "name": "to",
          "type": "address",
          "internalType": "address"
        }
      ],
      "outputs": [
        {
          "name": "amount0",
          "type": "uint256",
          "internalType": "uint256"
        },
        {
          "name": "amount1",
          "type": "uint256",
          "internalType": "uint256"
        }
      ],
      "stateMutability": "nonpayable"
    },
    {
      "type": "function",
      "name": "decimals",
      "inputs": [],
      "outputs": [
        {
          "name": "",
          "type": "uint8",
          "internalType": "uint8"
        }
      ],
      "stateMutability": "view"
    },
    {
      "type": "function",
      "name": "factory",
      "inputs": [],
      "outputs": [
        {
          "name": "",
          "type": "address",
          "internalType": "address"
        }
      ],
      "stateMutability": "view"
    },
    {
      "type": "function",
      "name": "getReserves",
      "inputs": [],
      "outputs": [
        {
          "name": "",
          "type": "uint112",
          "internalType": "uint112"
        },
        {
          "name": "",
          "type": "uint112",
          "internalType": "uint112"
        },
        {
          "name": "",
          "type": "uint32",
          "internalType": "uint32"
        }
      ],
      "stateMutability": "view"
    },
    {
      "type": "function",
      "name": "initialize",
      "inputs": [
        {
          "name": "_token0",
          "type": "address",
          "internalType": "address"
        },
        {
          "name": "_token1",
          "type": "address",
          "internalType": "address"
        }
      ],
      "outputs": [],
      "stateMutability": "nonpayable"
    },
    {
      "type": "function",
      "name": "kLast",
      "inputs": [],
      "outputs": [
        {
          "name": "",
          "type": "uint256",
          "internalType": "uint256"
        }
      ],
      "stateMutability": "view"
    },
    {
      "type": "function",
      "name": "mint",
      "inputs": [],
      "outputs": [
        {
          "name": "liquidity",
          "type": "uint256",
          "internalType": "uint256"
        }
      ],
      "stateMutability": "nonpayable"
    },
    {
      "type": "function",
      "name": "name",
      "inputs": [],
      "outputs": [
        {
          "name": "",
          "type": "string",
          "internalType": "string"
        }
      ],
      "stateMutability": "view"
    },
    {
      "type": "function",
      "name": "swap",
      "inputs": [
        {
          "name": "amount0Out",
          "type": "uint256",
          "internalType": "uint256"
        },
        {
          "name": "amount1Out",
          "type": "uint256",
          "internalType": "uint256"
        },
        {
          "name": "to",
          "type": "address",
          "internalType": "address"
        }
      ],
      "outputs": [],
      "stateMutability": "nonpayable"
    },
    {
      "type": "function",
      "name": "symbol",
      "inputs": [],
      "outputs": [
        {
          "name": "",
          "type": "string",
          "internalType": "string"
        }
      ],
      "stateMutability": "view"
    },
    {
      "type": "function",
      "name": "token0",
      "inputs": [],
      "outputs": [
        {
          "name": "",
          "type": "address",
          "internalType": "address"
        }
      ],
      "stateMutability": "view"
    },
    {
      "type": "function",
      "name": "token1",
      "inputs": [],
      "outputs": [
        {
          "name": "",
          "type": "address",
          "internalType": "address"
        }
      ],
      "stateMutability": "view"
    },
    {
      "type": "function",
      "name": "totalSupply",
      "inputs": [],
      "outputs": [
        {
          "name": "",
          "type": "uint256",
          "internalType": "uint256"
        }
      ],
      "stateMutability": "view"
    },
    {
      "type": "function",
      "name": "transfer",
      "inputs": [
        {
          "name": "to",
          "type": "address",
          "internalType": "address"
        },
        {
          "name": "value",
          "type": "uint256",
          "internalType": "uint256"
        }
      ],
      "outputs": [
        {
          "name": "",
          "type": "bool",
          "internalType": "bool"
        }
      ],
      "stateMutability": "nonpayable"
    },
    {
      "type": "function",
      "name": "transferFrom",
      "inputs": [
        {
          "name": "from",
          "type": "address",
          "internalType": "address"
        },
        {
          "name": "to",
          "type": "address",
          "internalType": "address"
        },
        {
          "name": "value",
          "type": "uint256",
          "internalType": "uint256"
        }
      ],
      "outputs": [
        {
          "name": "",
          "type": "bool",
          "internalType": "bool"
        }
      ],
      "stateMutability": "nonpayable"
    },
    {
      "type": "event",
      "name": "Approval",
      "inputs": [
        {
          "name": "owner",
          "type": "address",
          "indexed": true,
          "internalType": "address"
        },
        {
          "name": "spender",
          "type": "address",
          "indexed": true,
          "internalType": "address"
        },
        {
          "name": "value",
          "type": "uint256",
          "indexed": false,
          "internalType": "uint256"
        }
      ],
      "anonymous": false
    },
    {
      "type": "event",
      "name": "Burn",
      "inputs": [
        {
          "name": "sender",
          "type": "address",
          "indexed": true,
          "internalType": "address"
        },
        {
          "name": "amount0",
          "type": "uint256",
          "indexed": false,
          "internalType": "uint256"
        },
        {
          "name": "amount1",
          "type": "uint256",
          "indexed": false,
          "internalType": "uint256"
        },
        {
          "name": "to",
          "type": "address",
          "indexed": true,
          "internalType": "address"
        }
      ],
      "anonymous": false
    },
    {
      "type": "event",
      "name": "Mint",
      "inputs": [
        {
          "name": "sender",
          "type": "address",
          "indexed": true,
          "internalType": "address"
        },
        {
          "name": "amount0",
          "type": "uint256",
          "indexed": false,
          "internalType": "uint256"
        },
        {
          "name": "amount1",
          "type": "uint256",
          "indexed": false,
          "internalType": "uint256"
        }
      ],
      "anonymous": false
    },
    {
      "type": "event",
      "name": "Swap",
      "inputs": [
        {
          "name": "sender",
          "type": "address",
          "indexed": true,
          "internalType": "address"
        },
        {
          "name": "amount0In",
          "type": "uint256",
          "indexed": false,
          "internalType": "uint256"
        },
        {
          "name": "amount1In",
          "type": "uint256",
          "indexed": false,
          "internalType": "uint256"
        },
        {
          "name": "amount0Out",
          "type": "uint256",
          "indexed": false,
          "internalType": "uint256"
        },
        {
          "name": "amount1Out",
          "type": "uint256",
          "indexed": false,
          "internalType": "uint256"
        },
        {
          "name": "to",
          "type": "address",
          "indexed": true,
          "internalType": "address"
        }
      ],
      "anonymous": false
    },
    {
      "type": "event",
      "name": "Sync",
      "inputs": [
        {
          "name": "reserve0",
          "type": "uint112",
          "indexed": false,
          "internalType": "uint112"
        },
        {
          "name": "reserve1",
          "type": "uint112",
          "indexed": false,
          "internalType": "uint112"
        }
      ],
      "anonymous": false
    },
    {
      "type": "event",
      "name": "Transfer",
      "inputs": [
        {
          "name": "from",
          "type": "address",
          "indexed": true,
          "internalType": "address"
        },
        {
          "name": "to",
          "type": "address",
          "indexed": true,
          "internalType": "address"
        },
        {
          "name": "value",
          "type": "uint256",
          "indexed": false,
          "internalType": "uint256"
        }
      ],
      "anonymous": false
    },
    {
      "type": "error",
      "name": "AlreadyInitialized",
      "inputs": []
    },
    {
      "type": "error",
      "name": "ERC20InsufficientAllowance",
      "inputs": [
        {
          "name": "spender",
          "type": "address",
          "internalType": "address"
        },
        {
          "name": "allowance",
          "type": "uint256",
          "internalType": "uint256"
        },
        {
          "name": "needed",
          "type": "uint256",
          "internalType": "uint256"
        }
      ]
    },
    {
      "type": "error",
      "name": "ERC20InsufficientBalance",
      "inputs": [
        {
          "name": "sender",
          "type": "address",
          "internalType": "address"
        },
        {
          "name": "balance",
          "type": "uint256",
          "internalType": "uint256"
        },
        {
          "name": "needed",
          "type": "uint256",
          "internalType": "uint256"
        }
      ]
    },
    {
      "type": "error",
      "name": "ERC20InvalidApprover",
      "inputs": [
        {
          "name": "approver",
          "type": "address",
          "internalType": "address"
        }
      ]
    },
    {
      "type": "error",
      "name": "ERC20InvalidReceiver",
      "inputs": [
        {
          "name": "receiver",
          "type": "address",
          "internalType": "address"
        }
      ]
    },
    {
      "type": "error",
      "name": "ERC20InvalidSender",
      "inputs": [
        {
          "name": "sender",
          "type": "address",
          "internalType": "address"
        }
      ]
    },
    {
      "type": "error",
      "name": "ERC20InvalidSpender",
      "inputs": [
        {
          "name": "spender",
          "type": "address",
          "internalType": "address"
        }
      ]
    },
    {
      "type": "error",
      "name": "ZeroAddress",
      "inputs": []
    }
  ],
  "bytecode": {
    "object": "0x60806040523461002757610011610036565b61001961002c565b612a6f6103f38239612a6f90f35b610032565b60405190565b5f80fd5b61003e610168565b565b601f801991011690565b634e487b7160e01b5f52604160045260245ffd5b9061006890610040565b810190811060018060401b0382111761008057604052565b61004a565b9061009861009161002c565b928361005e565b565b60018060401b0381116100b6576100b2602091610040565b0190565b61004a565b906100cd6100c88361009a565b610085565b918252565b5f7f4c5020746f6b656e730000000000000000000000000000000000000000000000910152565b61010360096100bb565b90610110602083016100d2565b565b61011a6100f9565b90565b5f7f6c70000000000000000000000000000000000000000000000000000000000000910152565b61014e60026100bb565b9061015b6020830161011d565b565b610165610144565b90565b610181610173610112565b61017b61015d565b906103da565b565b5190565b634e487b7160e01b5f52602260045260245ffd5b90600160028304921680156101bb575b60208310146101b657565b610187565b91607f16916101ab565b5f5260205f2090565b601f602091010490565b1b90565b919060086101f79102916101f15f19846101d8565b926101d8565b9181191691161790565b90565b90565b61021b61021661022092610201565b610204565b610201565b90565b90565b919061023c61023761024493610207565b610223565b9083546101dc565b9055565b5f90565b61025e91610258610248565b91610226565b565b5b81811061026c575050565b806102795f60019361024c565b01610261565b9190601f811161028f575b505050565b61029b6102c0936101c5565b9060206102a7846101ce565b830193106102c8575b6102b9906101ce565b0190610260565b5f808061028a565b91506102b9819290506102b0565b1c90565b906102ea905f19906008026102d6565b191690565b816102f9916102da565b906002021790565b9061030b81610183565b9060018060401b0382116103c95761032d82610327855461019b565b8561027f565b602090601f831160011461036157918091610350935f92610355575b50506102ef565b90555b565b90915001515f80610349565b601f19831691610370856101c5565b925f5b8181106103b157509160029391856001969410610397575b50505002019055610353565b6103a7910151601f8416906102da565b90555f808061038b565b91936020600181928787015181550195019201610373565b61004a565b906103d891610301565b565b906103e96103f09260036103ce565b60046103ce565b56fe60806040526004361015610013575b610893565b61001d5f3561013c565b806306fdde03146101375780630902f1ac14610132578063095ea7b31461012d5780630dfe1681146101285780631249c58b1461012357806318160ddd1461011e57806323b872dd14610119578063313ce56714610114578063485cc9551461010f5780636d9a640a1461010a57806370a08231146101055780637464fc3d1461010057806389afcb44146100fb57806395d89b41146100f6578063a9059cbb146100f1578063c45a0155146100ec578063d21220a7146100e75763dd62ed3e0361000e5761085d565b610828565b6107e4565b61079f565b61076a565b610734565b6106dc565b61066f565b61061d565b6105af565b610548565b6104ea565b61047b565b610446565b6103ef565b610353565b610267565b6101ca565b60e01c90565b60405190565b5f80fd5b5f80fd5b5f91031261015a57565b61014c565b5190565b60209181520190565b90825f9392825e0152565b601f801991011690565b6101a06101a96020936101ae936101978161015f565b93848093610163565b9586910161016c565b610177565b0190565b6101c79160208201915f818403910152610181565b90565b346101fa576101da366004610150565b6101f66101e56109f0565b6101ed610142565b918291826101b2565b0390f35b610148565b6dffffffffffffffffffffffffffff1690565b61021b906101ff565b9052565b63ffffffff1690565b6102319061021f565b9052565b60409061025e610265949695939661025460608401985f850190610212565b6020830190610212565b0190610228565b565b3461029a57610277366004610150565b610296610282610a98565b61028d939193610142565b93849384610235565b0390f35b610148565b60018060a01b031690565b6102b39061029f565b90565b6102bf816102aa565b036102c657565b5f80fd5b905035906102d7826102b6565b565b90565b6102e5816102d9565b036102ec57565b5f80fd5b905035906102fd826102dc565b565b9190604083820312610327578061031b610324925f86016102ca565b936020016102f0565b90565b61014c565b151590565b61033a9061032c565b9052565b9190610351905f60208501940190610331565b565b346103845761038061036f6103693660046102ff565b90610adc565b610377610142565b9182918261033e565b0390f35b610148565b1c90565b60018060a01b031690565b6103a89060086103ad9302610389565b61038d565b90565b906103bb9154610398565b90565b6103ca60065f906103b0565b90565b6103d6906102aa565b9052565b91906103ed905f602085019401906103cd565b565b3461041f576103ff366004610150565b61041b61040a6103be565b610412610142565b918291826103da565b0390f35b610148565b61042d906102d9565b9052565b9190610444905f60208501940190610424565b565b3461047657610456366004610150565b610472610461610db0565b610469610142565b91829182610431565b0390f35b610148565b346104ab5761048b366004610150565b6104a7610496611079565b61049e610142565b91829182610431565b0390f35b610148565b90916060828403126104e5576104e26104cb845f85016102ca565b936104d981602086016102ca565b936040016102f0565b90565b61014c565b3461051b576105176105066105003660046104b0565b9161108f565b61050e610142565b9182918261033e565b0390f35b610148565b60ff1690565b61052f90610520565b9052565b9190610546905f60208501940190610526565b565b3461057857610558366004610150565b6105746105636110e1565b61056b610142565b91829182610533565b0390f35b610148565b91906040838203126105a557806105996105a2925f86016102ca565b936020016102ca565b90565b61014c565b5f0190565b346105de576105c86105c236600461057d565b906111ce565b6105d0610142565b806105da816105aa565b0390f35b610148565b9091606082840312610618576106156105fe845f85016102f0565b9361060c81602086016102f0565b936040016102ca565b90565b61014c565b3461064c576106366106303660046105e3565b91611592565b61063e610142565b80610648816105aa565b0390f35b610148565b9060208282031261066a57610667915f016102ca565b90565b61014c565b3461069f5761069b61068a610685366004610651565b611b2b565b610692610142565b91829182610431565b0390f35b610148565b90565b6106b79060086106bc9302610389565b6106a4565b90565b906106ca91546106a7565b90565b6106d9600a5f906106bf565b90565b3461070c576106ec366004610150565b6107086106f76106cd565b6106ff610142565b91829182610431565b0390f35b610148565b91602061073292949361072b60408201965f830190610424565b0190610424565b565b346107655761074c610747366004610651565b611bcb565b90610761610758610142565b92839283610711565b0390f35b610148565b3461079a5761077a366004610150565b610796610785612028565b61078d610142565b918291826101b2565b0390f35b610148565b346107d0576107cc6107bb6107b53660046102ff565b9061203e565b6107c3610142565b9182918261033e565b0390f35b610148565b6107e160055f906103b0565b90565b34610814576107f4366004610150565b6108106107ff6107d5565b610807610142565b918291826103da565b0390f35b610148565b61082560075f906103b0565b90565b3461085857610838366004610150565b610854610843610819565b61084b610142565b918291826103da565b0390f35b610148565b3461088e5761088a61087961087336600461057d565b90612076565b610881610142565b91829182610431565b0390f35b610148565b5f80fd5b606090565b634e487b7160e01b5f52602260045260245ffd5b90600160028304921680156108d0575b60208310146108cb57565b61089c565b91607f16916108c0565b60209181520190565b5f5260205f2090565b905f92918054906109066108ff836108b0565b80946108da565b916001811690815f1461095d5750600114610921575b505050565b61092e91929394506108e3565b915f925b81841061094557505001905f808061091c565b60018160209295939554848601520191019290610932565b92949550505060ff19168252151560200201905f808061091c565b90610982916108ec565b90565b634e487b7160e01b5f52604160045260245ffd5b906109a390610177565b810190811067ffffffffffffffff8211176109bd57604052565b610985565b906109e26109db926109d2610142565b93848092610978565b0383610999565b565b6109ed906109c2565b90565b6109f8610897565b50610a0360036109e4565b90565b5f90565b5f90565b5f1c90565b6dffffffffffffffffffffffffffff1690565b610a32610a3791610a0e565b610a13565b90565b610a449054610a26565b90565b60701c90565b610a59610a5e91610a47565b610a13565b90565b610a6b9054610a4d565b90565b63ffffffff1690565b610a83610a889161013c565b610a6e565b90565b610a959054610a77565b90565b610aa0610a06565b50610aa9610a06565b50610ab2610a0a565b50610abd6008610a3a565b610ac76008610a61565b91610ad26008610a8b565b91929190565b5f90565b610af991610ae8610ad8565b50610af16120a2565b9190916120af565b600190565b5f90565b610b0e610b1391610a0e565b61038d565b90565b610b209054610b02565b90565b90565b610b3a610b35610b3f9261029f565b610b23565b61029f565b90565b610b4b90610b26565b90565b610b5790610b42565b90565b610b6390610b26565b90565b610b6f90610b5a565b90565b610b7b90610b5a565b90565b60e01b90565b90505190610b91826102dc565b565b90602082820312610bac57610ba9915f01610b84565b90565b61014c565b610bb9610142565b3d5f823e3d90fd5b610bd5610bd0610bda926101ff565b610b23565b6102d9565b90565b634e487b7160e01b5f52601160045260245ffd5b610c00610c06919392936102d9565b926102d9565b8203918211610c1157565b610bdd565b90565b610c2d610c28610c3292610c16565b610b23565b6102d9565b90565b5f7f494e53554646494349454e545f4c495155494449545900000000000000000000910152565b610c696016602092610163565b610c7281610c35565b0190565b610c8b9060208101905f818303910152610c5c565b90565b15610c9557565b610c9d610142565b62461bcd60e51b815280610cb360048201610c76565b0390fd5b610cc6610ccc919392936102d9565b926102d9565b91610cd88382026102d9565b928184041490151715610ce757565b610bdd565b634e487b7160e01b5f52601260045260245ffd5b610d0c610d12916102d9565b916102d9565b908115610d1d570490565b610cec565b5f7f494e53554646494349454e545f4c49515549444954595f4d494e544544000000910152565b610d56601d602092610163565b610d5f81610d22565b0190565b610d789060208101905f818303910152610d49565b90565b15610d8257565b610d8a610142565b62461bcd60e51b815280610da060048201610d63565b0390fd5b610dad90610b5a565b90565b610db8610afe565b50610dc1610a98565b509190610e156020610de3610dde610dd96006610b16565b610b4e565b610b66565b6370a0823190610e0a610df530610b72565b92610dfe610142565b95869485938493610b7e565b8352600483016103da565b03915afa908115611053575f91611025575b5092610e7a6020610e48610e43610e3e6007610b16565b610b4e565b610b66565b6370a0823190610e6f610e5a30610b72565b92610e63610142565b95869485938493610b7e565b8352600483016103da565b03915afa801561102057610f42915f91610ff2575b50610ea386610e9d86610bc1565b90610bf1565b92610eb782610eb183610bc1565b90610bf1565b9484610ecb610ec55f610c19565b916102d9565b1180610fd3575b610edb90610c8e565b610ee3611079565b9081610ef7610ef15f610c19565b916102d9565b145f14610f8957505050610f14610f0f848690610cb7565b612152565b955b610f3287610f2c610f265f610c19565b916102d9565b11610d7b565b610f3d33889061221f565b612466565b339091610f6f7f4c209b5fc8ad50758f13e2e1088ba56a560dff690a1c6fef26394f4c03821c4f92610da4565b92610f84610f7b610142565b92839283610711565b0390a2565b610fcd92610fc1610fbb610fb4610fc794610fae610fa88c8990610cb7565b91610bc1565b90610d00565b948a610cb7565b91610bc1565b90610d00565b906120bf565b95610f16565b50610edb86610fea610fe45f610c19565b916102d9565b119050610ed2565b611013915060203d8111611019575b61100b8183610999565b810190610b93565b5f610e8f565b503d611001565b610bb1565b611046915060203d811161104c575b61103e8183610999565b810190610b93565b5f610e27565b503d611034565b610bb1565b61106461106991610a0e565b6106a4565b90565b6110769054611058565b90565b611081610afe565b5061108c600261106c565b90565b916110b99261109c610ad8565b506110b16110a86120a2565b829084916125bb565b919091612647565b600190565b5f90565b90565b6110d96110d46110de926110c2565b610b23565b610520565b90565b6110e96110be565b506110f460126110c5565b90565b60ff1690565b61110961110e91610a0e565b6110f7565b90565b61111b90546110fd565b90565b61113261112d61113792610c16565b610b23565b61029f565b90565b6111439061111e565b90565b5f1b90565b9061115c60018060a01b0391611146565b9181191691161790565b90565b9061117e61117961118592610da4565b611166565b825461114b565b9055565b9061119560ff91611146565b9181191691161790565b6111a89061032c565b90565b90565b906111c36111be6111ca9261119f565b6111ab565b8254611189565b9055565b906111d96009611111565b61127057816111f86111f26111ed5f61113a565b6102aa565b916102aa565b14801561124e575b61123257611212611219926006611169565b6007611169565b611224336005611169565b611230600160096111ae565b565b5f63d92e233d60e01b81528061124a600482016105aa565b0390fd5b508061126a61126461125f5f61113a565b6102aa565b916102aa565b14611200565b5f62dc149f60e41b815280611287600482016105aa565b0390fd5b5f7f494e53554646494349454e545f4f555450555400000000000000000000000000910152565b6112bf6013602092610163565b6112c88161128b565b0190565b6112e19060208101905f8183039101526112b2565b90565b156112eb57565b6112f3610142565b62461bcd60e51b815280611309600482016112cc565b0390fd5b5f7f494e56414c49445f544f00000000000000000000000000000000000000000000910152565b611341600a602092610163565b61134a8161130d565b0190565b6113639060208101905f818303910152611334565b90565b1561136d57565b611375610142565b62461bcd60e51b81528061138b6004820161134e565b0390fd5b6113988161032c565b0361139f57565b5f80fd5b905051906113b08261138f565b565b906020828203126113cb576113c8915f016113a3565b90565b61014c565b9160206113f19294936113ea60408201965f8301906103cd565b0190610424565b565b5f7f494e53554646494349454e545f494e5055540000000000000000000000000000910152565b6114276012602092610163565b611430816113f3565b0190565b6114499060208101905f81830391015261141a565b90565b1561145357565b61145b610142565b62461bcd60e51b81528061147160048201611434565b0390fd5b90565b61148c61148761149192611475565b610b23565b6102d9565b90565b90565b6114ab6114a66114b092611494565b610b23565b6102d9565b90565b90565b6114ca6114c56114cf926114b3565b610b23565b6102d9565b90565b5f7f4b00000000000000000000000000000000000000000000000000000000000000910152565b6115066001602092610163565b61150f816114d2565b0190565b6115289060208101905f8183039101526114f9565b90565b1561153257565b61153a610142565b62461bcd60e51b81528061155060048201611513565b0390fd5b6115896115909461157f606094989795611575608086019a5f870190610424565b6020850190610424565b6040830190610424565b0190610424565b565b919091806115a86115a25f610c19565b916102d9565b118015611af6575b6115b9906112e4565b6115c1610a98565b509190816115d76115d183610bc1565b916102d9565b1080611ad7575b6115e790610c8e565b836116036115fd6115f86006610b16565b6102aa565b916102aa565b141580611aae575b61161490611366565b816116276116215f610c19565b916102d9565b11611a1c575b8461164061163a5f610c19565b916102d9565b1161198a575b611697602061166561166061165b6006610b16565b610b4e565b610b66565b6370a082319061168c61167730610b72565b92611680610142565b95869485938493610b7e565b8352600483016103da565b03915afa908115611985575f91611957575b50926116fc60206116ca6116c56116c06007610b16565b610b4e565b610b66565b6370a08231906116f16116dc30610b72565b926116e5610142565b95869485938493610b7e565b8352600483016103da565b03915afa908115611952575f91611924575b508461173461172e611729866117248991610bc1565b610bf1565b6102d9565b916102d9565b115f1461191657611758856117528561174d8891610bc1565b610bf1565b90610bf1565b5b948161177f6117796117748661176f8d91610bc1565b610bf1565b6102d9565b916102d9565b115f1461190757816117a48161179e866117998d91610bc1565b610bf1565b90610bf1565b5b94858884815f6117b490610c19565b906117be906102d9565b1180159861186761186161185b6118919961185561188a996118969f61183e61182c6118849c61182661181561187f9e61186d9e61184f976118e8575b6118049061144c565b61180f6103e8611478565b90610cb7565b916118206003611497565b90610cb7565b90610bf1565b946118386103e8611478565b90610cb7565b916118496003611497565b90610cb7565b90610bf1565b90610cb7565b97610bc1565b91610bc1565b90610cb7565b611879620f42406114b6565b90610cb7565b6102d9565b916102d9565b101561152b565b612466565b6118e333939192956118d16118cb7fd78ad95fa46c994b6551d0da85fc275fe613ce37657fb8d5e3d130840159d82296610da4565b96610da4565b966118da610142565b94859485611554565b0390a3565b50611804886118ff6118f95f610c19565b916102d9565b1190506117fb565b816119115f610c19565b6117a5565b61191f5f610c19565b611759565b611945915060203d811161194b575b61193d8183610999565b810190610b93565b5f61170e565b503d611933565b610bb1565b611978915060203d811161197e575b6119708183610999565b810190610b93565b5f6116a9565b503d611966565b610bb1565b6119a461199f61199a6007610b16565b610b4e565b610b66565b602063a9059cbb9186906119cb5f8a956119d66119bf610142565b97889687958694610b7e565b8452600484016113d0565b03925af18015611a17576119eb575b50611646565b611a0b9060203d8111611a10575b611a038183610999565b8101906113b2565b6119e5565b503d6119f9565b610bb1565b611a36611a31611a2c6006610b16565b610b4e565b610b66565b602063a9059cbb918690611a5d5f8795611a68611a51610142565b97889687958694610b7e565b8452600484016113d0565b03925af18015611aa957611a7d575b5061162d565b611a9d9060203d8111611aa2575b611a958183610999565b8101906113b2565b611a77565b503d611a8b565b610bb1565b5061161484611ace611ac8611ac36007610b16565b6102aa565b916102aa565b1415905061160b565b506115e785611aee611ae886610bc1565b916102d9565b1090506115de565b506115b983611b0d611b075f610c19565b916102d9565b1190506115b0565b90611b1f90610da4565b5f5260205260405f2090565b611b41611b4691611b3a610afe565b505f611b15565b61106c565b90565b5f7f494e53554646494349454e545f4c49515549444954595f4255524e4544000000910152565b611b7d601d602092610163565b611b8681611b49565b0190565b611b9f9060208101905f818303910152611b70565b90565b15611ba957565b611bb1610142565b62461bcd60e51b815280611bc760048201611b8a565b0390fd5b90611bd4610afe565b50611bdd610afe565b50611be86006610b16565b90611bf36007610b16565b92611c3c6020611c0a611c0586610b4e565b610b66565b6370a0823190611c31611c1c30610b72565b92611c25610142565b95869485938493610b7e565b8352600483016103da565b03915afa908115612023575f91611ff5575b5092611c986020611c66611c6188610b4e565b610b66565b6370a0823190611c8d611c7830610b72565b92611c81610142565b95869485938493610b7e565b8352600483016103da565b03915afa908115611ff0575f91611fc2575b5094611d20611cee611cba611079565b611ce9611ce2611cdb611cd4611ccf30610b72565b611b2b565b9a8b610cb7565b8390610d00565b9989610cb7565b610d00565b9587611d02611cfc5f610c19565b916102d9565b1180611fa3575b611d1290611ba2565b611d1b30610b72565b6126e4565b611d31611d2c83610b4e565b610b66565b602063a9059cbb918590611d585f8b95611d63611d4c610142565b97889687958694610b7e565b8452600484016113d0565b03925af18015611f9e57611f72575b50611d84611d7f82610b4e565b610b66565b91602063a9059cbb938590611dac5f8a97611db7611da0610142565b998a9687958694610b7e565b8452600484016113d0565b03925af1928315611f6d57611ddb602092611de092611e1296611f42575b50610b4e565b610b66565b6370a0823190611e07611df230610b72565b92611dfb610142565b96879485938493610b7e565b8352600483016103da565b03915afa918215611f3d57611e3d611e38611e6f946020935f91611f10575b5093610b4e565b610b66565b6370a0823190611e64611e4f30610b72565b92611e58610142565b96879485938493610b7e565b8352600483016103da565b03915afa8015611f0b57611e8b925f91611edd575b5090612466565b3390849184611ec3611ebd7fdccd412f0b1252819cb1fd330b93224ca42612892bb3f4f789976e6d8193649693610da4565b93610da4565b93611ed8611ecf610142565b92839283610711565b0390a3565b611efe915060203d8111611f04575b611ef68183610999565b810190610b93565b5f611e84565b503d611eec565b610bb1565b611f309150843d8111611f36575b611f288183610999565b810190610b93565b5f611e31565b503d611f1e565b610bb1565b611f6190853d8111611f66575b611f598183610999565b8101906113b2565b611dd5565b503d611f4f565b610bb1565b611f929060203d8111611f97575b611f8a8183610999565b8101906113b2565b611d72565b503d611f80565b610bb1565b50611d1287611fba611fb45f610c19565b916102d9565b119050611d09565b611fe3915060203d8111611fe9575b611fdb8183610999565b810190610b93565b5f611caa565b503d611fd1565b610bb1565b612016915060203d811161201c575b61200e8183610999565b810190610b93565b5f611c4e565b503d612004565b610bb1565b612030610897565b5061203b60046109e4565b90565b61205b9161204a610ad8565b506120536120a2565b919091612647565b600190565b9061206a90610da4565b5f5260205260405f2090565b61209b9161209161209692612089610afe565b506001612060565b611b15565b61106c565b90565b5f90565b6120aa61209e565b503390565b916120bd92916001926126f0565b565b906120c8610afe565b50816120dc6120d6836102d9565b916102d9565b105f146120e857505b90565b90506120e5565b90565b61210661210161210b926120ef565b610b23565b6102d9565b90565b90565b61212561212061212a9261210e565b610b23565b6102d9565b90565b61213c612142919392936102d9565b926102d9565b820180921161214d57565b610bdd565b61215a610afe565b8161216e6121686003611497565b916102d9565b115f146121ee57508061219e61218e836121886002612111565b90610d00565b61219860016120f2565b9061212d565b905b816121b36121ad836102d9565b916102d9565b10156121e757506121e16121d1826121cc858290610d00565b61212d565b6121db6002612111565b90610d00565b906121a0565b929150505b565b91906122026121fc5f610c19565b916102d9565b0361220d575b6121ec565b905061221960016120f2565b90612208565b90612229916127ff565b565b5f7f4f564552464c4f57000000000000000000000000000000000000000000000000910152565b61225f6008602092610163565b6122688161222b565b0190565b6122819060208101905f818303910152612252565b90565b1561228b57565b612293610142565b62461bcd60e51b8152806122a96004820161226c565b0390fd5b6122c16122bc6122c6926102d9565b610b23565b6101ff565b90565b906122e26dffffffffffffffffffffffffffff91611146565b9181191691161790565b6123006122fb612305926101ff565b610b23565b6101ff565b90565b90565b9061232061231b612327926122ec565b612308565b82546122c9565b9055565b60701b90565b9061234d6dffffffffffffffffffffffffffff60701b9161232b565b9181191691161790565b9061236c612367612373926122ec565b612308565b8254612331565b9055565b61238b612386612390926102d9565b610b23565b61021f565b90565b906123a563ffffffff60e01b91610b7e565b9181191691161790565b6123c36123be6123c89261021f565b610b23565b61021f565b90565b90565b906123e36123de6123ea926123af565b6123cb565b8254612393565b9055565b906123fa5f1991611146565b9181191691161790565b61241861241361241d926102d9565b610b23565b6102d9565b90565b90565b9061243861243361243f92612404565b612420565b82546123ee565b9055565b91602061246492949361245d60408201965f830190610212565b0190610212565b565b6124e2916124d66124cf6124db9361249f816124986124926dffffffffffffffffffffffffffff610bc1565b916102d9565b1115612284565b6124ca846124c36124bd6dffffffffffffffffffffffffffff610bc1565b916102d9565b1115612284565b6122ad565b600861230b565b6122ad565b6008612357565b6124f56124ee42612377565b60086123ce565b61252c61252561250d6125086008610a3a565b610bc1565b61251f61251a6008610a61565b610bc1565b90610cb7565b600a612423565b6125366008610a3a565b6125406008610a61565b7f1c411e9a96e071241c2f21f7726b17ae89e3cab4c78be50e062b03a9fffbbad19161257661256d610142565b92839283612443565b0390a1565b6040906125a46125ab949695939661259a60608401985f8501906103cd565b6020830190610424565b0190610424565b565b906125b891036102d9565b90565b9291926125c9818390612076565b90816125de6125d85f196102d9565b916102d9565b106125eb575b5050509050565b816125fe6125f8876102d9565b916102d9565b106126245761261b93946126139193926125ad565b905f926126f0565b805f80806125e4565b50612643849291925f938493637dc7a0d960e11b85526004850161257b565b0390fd5b918261266361265d6126585f61113a565b6102aa565b916102aa565b146126bd578161268361267d6126785f61113a565b6102aa565b916102aa565b14612696576126949291909161286b565b565b6126b96126a25f61113a565b5f91829163ec442f0560e01b8352600483016103da565b0390fd5b6126e06126c95f61113a565b5f918291634b637e8f60e11b8352600483016103da565b0390fd5b906126ee916129da565b565b90928161270d6127076127025f61113a565b6102aa565b916102aa565b146127d8578361272d6127276127225f61113a565b6102aa565b916102aa565b146127b1576127518361274c61274560018690612060565b8790611b15565b612423565b61275b575b505050565b9190916127a661279461278e7f8c5be1e5ebec7d5bd14f71427d1e84f3dd0314c0f7b2291e5b200ac8c7c3b92593610da4565b93610da4565b9361279d610142565b91829182610431565b0390a35f8080612756565b6127d46127bd5f61113a565b5f918291634a1406b160e11b8352600483016103da565b0390fd5b6127fb6127e45f61113a565b5f91829163e602df0560e01b8352600483016103da565b0390fd5b8061281a61281461280f5f61113a565b6102aa565b916102aa565b14612836576128349161282c5f61113a565b91909161286b565b565b6128596128425f61113a565b5f91829163ec442f0560e01b8352600483016103da565b0390fd5b9061286891016102d9565b90565b9190918061288961288361287e5f61113a565b6102aa565b916102aa565b145f1461296a576128ad6128a6836128a1600261106c565b61212d565b6002612423565b5b826128c96128c36128be5f61113a565b6102aa565b916102aa565b145f1461293e576128ed6128e6836128e1600261106c565b6125ad565b6002612423565b5b9190916129396129276129217fddf252ad1be2c89b69c2b068fc378daa952ba7f163c4a11628f55a4df523b3ef93610da4565b93610da4565b93612930610142565b91829182610431565b0390a3565b6129658261295f6129505f8790611b15565b9161295a8361106c565b61285d565b90612423565b6128ee565b61297d6129785f8390611b15565b61106c565b8061299061298a856102d9565b916102d9565b106129b8576129a36129b39184906125ad565b6129ae5f8490611b15565b612423565b6128ae565b906129d69091925f93849363391434e360e21b85526004850161257b565b0390fd5b90816129f66129f06129eb5f61113a565b6102aa565b916102aa565b14612a1257612a109190612a095f61113a565b909161286b565b565b612a35612a1e5f61113a565b5f918291634b637e8f60e11b8352600483016103da565b0390fdfea2646970667358221220a62fe7b9c562bb2779cb5b54d8d0ae447c8279b2356633bf3c993b679228e57c64736f6c634300081e0033",
    "linkReferences": {}
  },
  "methodIdentifiers": {
    "allowance(address,address)": "dd62ed3e",
    "approve(address,uint256)": "095ea7b3",
    "balanceOf(address)": "70a08231",
    "burn(address)": "89afcb44",
    "decimals()": "313ce567",
    "factory()": "c45a0155",
    "getReserves()": "0902f1ac",
    "initialize(address,address)": "485cc955",
    "kLast()": "7464fc3d",
    "mint()": "1249c58b",
    "name()": "06fdde03",
    "swap(uint256,uint256,address)": "6d9a640a",
    "symbol()": "95d89b41",
    "token0()": "0dfe1681",
    "token1()": "d21220a7",
    "totalSupply()": "18160ddd",
    "transfer(address,uint256)": "a9059cbb",
    "transferFrom(address,address,uint256)": "23b872dd"
  },
  "id": 27
}